{
  "transactions": [
    {
      "hash": "0x56d7a7b2f4b2cfa00786697908e49e28fa84c96d6db896fbcf1a31c4a4b2d19f",
      "transactionType": "CALL",
      "contractName": null,
      "contractAddress": "0x1a3e5bc5b7410f223cfa2df57aa90739db5bf6ff",
      "function": "bulkRenew(string[],uint256[],bytes32)",
      "arguments": [
        "[hyperstate, jackflash, 0xthrpw]",
        "[2678400, 2678400, 2678400]",
        "0x0000000000000000000000007e491cde0fbf08e51f54c4fb6b9e24afbd18966d"
      ],
      "transaction": {
        "from": "0xc9c3a4337a1bba75d0860a1a81f7b990dc607334",
        "to": "0x1a3e5bc5b7410f223cfa2df57aa90739db5bf6ff",
        "gas": "0x54b8f",
        "value": "0x19d7bafe0387a",
        "input": "0xdc02309b000000000000000000000000000000000000000000000000000000000000006000000000000000000000000000000000000000000000000000000000000001a00000000000000000000000007e491cde0fbf08e51f54c4fb6b9e24afbd18966d0000000000000000000000000000000000000000000000000000000000000003000000000000000000000000000000000000000000000000000000000000006000000000000000000000000000000000000000000000000000000000000000a000000000000000000000000000000000000000000000000000000000000000e0000000000000000000000000000000000000000000000000000000000000000a687970657273746174650000000000000000000000000000000000000000000000000000000000000000000000000000000000000000000000000000000000096a61636b666c6173680000000000000000000000000000000000000000000000000000000000000000000000000000000000000000000000000000000000000730787468727077000000000000000000000000000000000000000000000000000000000000000000000000000000000000000000000000000000000000000003000000000000000000000000000000000000000000000000000000000028de80000000000000000000000000000000000000000000000000000000000028de80000000000000000000000000000000000000000000000000000000000028de80",
        "nonce": "0x34",
        "chainId": "0x1"
      },
      "additionalContracts": [],
      "isFixedGasLimit": false
    }
  ],
  "receipts": [
    {
      "status": "0x1",
      "cumulativeGasUsed": "0x2459820",
      "logs": [
        {
          "address": "0x57f1887a8bf19b14fc0df6fd9b2acc9af147ea85",
          "topics": [
            "0x9b87a00e30f1ac65d898f070f8a3488fe60517182d0a2098e1b4b93a54aa9bd6",
            "0xee38b2302380829dfe58c8f8371d8058a8542e55eb4a19f59709ec8264df747c"
          ],
          "data": "0x000000000000000000000000000000000000000000000000000000006b10d343",
          "blockHash": "0x426e6272c91153a5cae7de54b0d002d30abc1c2d088ef55d29c878923af26e1f",
          "blockNumber": "0x16d0d3c",
          "blockTimestamp": "0x692e8887",
          "transactionHash": "0x56d7a7b2f4b2cfa00786697908e49e28fa84c96d6db896fbcf1a31c4a4b2d19f",
          "transactionIndex": "0x1b3",
          "logIndex": "0x304",
          "removed": false
        },
        {
          "address": "0x253553366da8546fc250f225fe3d25d0c782303b",
          "topics": [
            "0x3da24c024582931cfaf8267d8ed24d13a82a8068d5bd337d30ec45cea4e506ae",
            "0xee38b2302380829dfe58c8f8371d8058a8542e55eb4a19f59709ec8264df747c"
          ],
          "data": "0x0000000000000000000000000000000000000000000000000000000000000060000000000000000000000000000000000000000000000000000089d3e54abd7e000000000000000000000000000000000000000000000000000000006b10d343000000000000000000000000000000000000000000000000000000000000000a6879706572737461746500000000000000000000000000000000000000000000",
          "blockHash": "0x426e6272c91153a5cae7de54b0d002d30abc1c2d088ef55d29c878923af26e1f",
          "blockNumber": "0x16d0d3c",
          "blockTimestamp": "0x692e8887",
          "transactionHash": "0x56d7a7b2f4b2cfa00786697908e49e28fa84c96d6db896fbcf1a31c4a4b2d19f",
          "transactionIndex": "0x1b3",
          "logIndex": "0x305",
          "removed": false
        },
        {
          "address": "0x1a3e5bc5b7410f223cfa2df57aa90739db5bf6ff",
          "topics": [
            "0xbdc63144ed642739de589db600d0c625e01c4994358ad6591b3f6e424ea59945",
            "0xee38b2302380829dfe58c8f8371d8058a8542e55eb4a19f59709ec8264df747c"
          ],
          "data": "0x0000000000000000000000000000000000000000000000000000000000000080000000000000000000000000000000000000000000000000000089d3e54abd7e000000000000000000000000000000000000000000000000000000000028de800000000000000000000000007e491cde0fbf08e51f54c4fb6b9e24afbd18966d000000000000000000000000000000000000000000000000000000000000000a6879706572737461746500000000000000000000000000000000000000000000",
          "blockHash": "0x426e6272c91153a5cae7de54b0d002d30abc1c2d088ef55d29c878923af26e1f",
          "blockNumber": "0x16d0d3c",
          "blockTimestamp": "0x692e8887",
          "transactionHash": "0x56d7a7b2f4b2cfa00786697908e49e28fa84c96d6db896fbcf1a31c4a4b2d19f",
          "transactionIndex": "0x1b3",
          "logIndex": "0x306",
          "removed": false
        },
        {
          "address": "0x57f1887a8bf19b14fc0df6fd9b2acc9af147ea85",
          "topics": [
            "0x9b87a00e30f1ac65d898f070f8a3488fe60517182d0a2098e1b4b93a54aa9bd6",
            "0x4d79029535f7bb4e17e2f2e6ec794122fff9f254c41ad0ee58e1c3ef1ede02ef"
          ],
          "data": "0x000000000000000000000000000000000000000000000000000000006b1a33c7",
          "blockHash": "0x426e6272c91153a5cae7de54b0d002d30abc1c2d088ef55d29c878923af26e1f",
          "blockNumber": "0x16d0d3c",
          "blockTimestamp": "0x692e8887",
          "transactionHash": "0x56d7a7b2f4b2cfa00786697908e49e28fa84c96d6db896fbcf1a31c4a4b2d19f",
          "transactionIndex": "0x1b3",
          "logIndex": "0x307",
          "removed": false
        },
        {
          "address": "0x253553366da8546fc250f225fe3d25d0c782303b",
          "topics": [
            "0x3da24c024582931cfaf8267d8ed24d13a82a8068d5bd337d30ec45cea4e506ae",
            "0x4d79029535f7bb4e17e2f2e6ec794122fff9f254c41ad0ee58e1c3ef1ede02ef"
          ],
          "data": "0x0000000000000000000000000000000000000000000000000000000000000060000000000000000000000000000000000000000000000000000089d3e54abd7e000000000000000000000000000000000000000000000000000000006b1a33c700000000000000000000000000000000000000000000000000000000000000096a61636b666c6173680000000000000000000000000000000000000000000000",
          "blockHash": "0x426e6272c91153a5cae7de54b0d002d30abc1c2d088ef55d29c878923af26e1f",
          "blockNumber": "0x16d0d3c",
          "blockTimestamp": "0x692e8887",
          "transactionHash": "0x56d7a7b2f4b2cfa00786697908e49e28fa84c96d6db896fbcf1a31c4a4b2d19f",
          "transactionIndex": "0x1b3",
          "logIndex": "0x308",
          "removed": false
        },
        {
          "address": "0x1a3e5bc5b7410f223cfa2df57aa90739db5bf6ff",
          "topics": [
            "0xbdc63144ed642739de589db600d0c625e01c4994358ad6591b3f6e424ea59945",
            "0x4d79029535f7bb4e17e2f2e6ec794122fff9f254c41ad0ee58e1c3ef1ede02ef"
          ],
          "data": "0x0000000000000000000000000000000000000000000000000000000000000080000000000000000000000000000000000000000000000000000089d3e54abd7e000000000000000000000000000000000000000000000000000000000028de800000000000000000000000007e491cde0fbf08e51f54c4fb6b9e24afbd18966d00000000000000000000000000000000000000000000000000000000000000096a61636b666c6173680000000000000000000000000000000000000000000000",
          "blockHash": "0x426e6272c91153a5cae7de54b0d002d30abc1c2d088ef55d29c878923af26e1f",
          "blockNumber": "0x16d0d3c",
          "blockTimestamp": "0x692e8887",
          "transactionHash": "0x56d7a7b2f4b2cfa00786697908e49e28fa84c96d6db896fbcf1a31c4a4b2d19f",
          "transactionIndex": "0x1b3",
          "logIndex": "0x309",
          "removed": false
        },
        {
          "address": "0x57f1887a8bf19b14fc0df6fd9b2acc9af147ea85",
          "topics": [
            "0x9b87a00e30f1ac65d898f070f8a3488fe60517182d0a2098e1b4b93a54aa9bd6",
            "0x8d438b246e867b8f493a4b8bf7a5987215dee578ca89fae3d016a653f9137b90"
          ],
          "data": "0x000000000000000000000000000000000000000000000000000000006fe5649f",
          "blockHash": "0x426e6272c91153a5cae7de54b0d002d30abc1c2d088ef55d29c878923af26e1f",
          "blockNumber": "0x16d0d3c",
          "blockTimestamp": "0x692e8887",
          "transactionHash": "0x56d7a7b2f4b2cfa00786697908e49e28fa84c96d6db896fbcf1a31c4a4b2d19f",
          "transactionIndex": "0x1b3",
          "logIndex": "0x30a",
          "removed": false
        },
        {
          "address": "0x253553366da8546fc250f225fe3d25d0c782303b",
          "topics": [
            "0x3da24c024582931cfaf8267d8ed24d13a82a8068d5bd337d30ec45cea4e506ae",
            "0x8d438b246e867b8f493a4b8bf7a5987215dee578ca89fae3d016a653f9137b90"
          ],
          "data": "0x0000000000000000000000000000000000000000000000000000000000000060000000000000000000000000000000000000000000000000000089d3e54abd7e000000000000000000000000000000000000000000000000000000006fe5649f00000000000000000000000000000000000000000000000000000000000000073078746872707700000000000000000000000000000000000000000000000000",
          "blockHash": "0x426e6272c91153a5cae7de54b0d002d30abc1c2d088ef55d29c878923af26e1f",
          "blockNumber": "0x16d0d3c",
          "blockTimestamp": "0x692e8887",
          "transactionHash": "0x56d7a7b2f4b2cfa00786697908e49e28fa84c96d6db896fbcf1a31c4a4b2d19f",
          "transactionIndex": "0x1b3",
          "logIndex": "0x30b",
          "removed": false
        },
        {
          "address": "0x1a3e5bc5b7410f223cfa2df57aa90739db5bf6ff",
          "topics": [
            "0xbdc63144ed642739de589db600d0c625e01c4994358ad6591b3f6e424ea59945",
            "0x8d438b246e867b8f493a4b8bf7a5987215dee578ca89fae3d016a653f9137b90"
          ],
          "data": "0x0000000000000000000000000000000000000000000000000000000000000080000000000000000000000000000000000000000000000000000089d3e54abd7e000000000000000000000000000000000000000000000000000000000028de800000000000000000000000007e491cde0fbf08e51f54c4fb6b9e24afbd18966d00000000000000000000000000000000000000000000000000000000000000073078746872707700000000000000000000000000000000000000000000000000",
          "blockHash": "0x426e6272c91153a5cae7de54b0d002d30abc1c2d088ef55d29c878923af26e1f",
          "blockNumber": "0x16d0d3c",
          "blockTimestamp": "0x692e8887",
          "transactionHash": "0x56d7a7b2f4b2cfa00786697908e49e28fa84c96d6db896fbcf1a31c4a4b2d19f",
          "transactionIndex": "0x1b3",
          "logIndex": "0x30c",
          "removed": false
        }
      ],
      "logsBloom": "0x00002000000000000000000000000000000000000000000000010000100000000000000000200000000000000000000000000000000000808000000000400000000004000000000000000000000008000000100400000000000000000000000000000000000000000010000000000000000000000000000000000000000000000080000000000000100010000000000000000000080000000000000000000000000000000000000000004000000000000000000080000000000008000000001000000000004000000000000000001000000000000000000000000000000000000000000000000200000000000000000000000000000100000000000010002800",
      "type": "0x2",
      "transactionHash": "0x56d7a7b2f4b2cfa00786697908e49e28fa84c96d6db896fbcf1a31c4a4b2d19f",
      "transactionIndex": "0x1b3",
      "blockHash": "0x426e6272c91153a5cae7de54b0d002d30abc1c2d088ef55d29c878923af26e1f",
      "blockNumber": "0x16d0d3c",
      "gasUsed": "0x39ee1",
      "effectiveGasPrice": "0x204ee3d",
      "from": "0xc9c3a4337a1bba75d0860a1a81f7b990dc607334",
      "to": "0x1a3e5bc5b7410f223cfa2df57aa90739db5bf6ff",
      "contractAddress": null
    }
  ],
  "libraries": [],
  "pending": [],
  "returns": {},
  "timestamp": 1764657289436,
  "chain": 1,
  "commit": "a346a88"
}