{
  "transactions": [
    {
      "hash": "0x5ee607bd7976c538959e212d5254d56e79190cf32aff17cba0c3744d7113d8aa",
      "transactionType": "CALL",
      "contractName": null,
      "contractAddress": "0x1a3e5bc5b7410f223cfa2df57aa90739db5bf6ff",
      "function": "bulkRenew(string[],uint256[],bytes32)",
      "arguments": [
        "[hyperstate]",
        "[2678400]",
        "0x0000000000000000000000007e491cde0fbf08e51f54c4fb6b9e24afbd18966d"
      ],
      "transaction": {
        "from": "0xc9c3a4337a1bba75d0860a1a81f7b990dc607334",
        "to": "0x1a3e5bc5b7410f223cfa2df57aa90739db5bf6ff",
        "gas": "0x278b9",
        "value": "0x89d3e54abd7e",
        "input": "0xdc02309b000000000000000000000000000000000000000000000000000000000000006000000000000000000000000000000000000000000000000000000000000000e00000000000000000000000007e491cde0fbf08e51f54c4fb6b9e24afbd18966d00000000000000000000000000000000000000000000000000000000000000010000000000000000000000000000000000000000000000000000000000000020000000000000000000000000000000000000000000000000000000000000000a68797065727374617465000000000000000000000000000000000000000000000000000000000000000000000000000000000000000000000000000000000001000000000000000000000000000000000000000000000000000000000028de80",
        "nonce": "0x33",
        "chainId": "0x1"
      },
      "additionalContracts": [],
      "isFixedGasLimit": false
    }
  ],
  "receipts": [
    {
      "status": "0x1",
      "cumulativeGasUsed": "0xe73e55",
      "logs": [
        {
          "address": "0x57f1887a8bf19b14fc0df6fd9b2acc9af147ea85",
          "topics": [
            "0x9b87a00e30f1ac65d898f070f8a3488fe60517182d0a2098e1b4b93a54aa9bd6",
            "0xee38b2302380829dfe58c8f8371d8058a8542e55eb4a19f59709ec8264df747c"
          ],
          "data": "0x000000000000000000000000000000000000000000000000000000006ae7f4c3",
          "blockHash": "0x967932707d23e2b1e300c48bc84ad874a201bf09aa808ed6f087392a2ba12c2e",
          "blockNumber": "0x16d0d05",
          "blockTimestamp": "0x692e85f3",
          "transactionHash": "0x5ee607bd7976c538959e212d5254d56e79190cf32aff17cba0c3744d7113d8aa",
          "transactionIndex": "0x85",
          "logIndex": "0x13c",
          "removed": false
        },
        {
          "address": "0x253553366da8546fc250f225fe3d25d0c782303b",
          "topics": [
            "0x3da24c024582931cfaf8267d8ed24d13a82a8068d5bd337d30ec45cea4e506ae",
            "0xee38b2302380829dfe58c8f8371d8058a8542e55eb4a19f59709ec8264df747c"
          ],
          "data": "0x0000000000000000000000000000000000000000000000000000000000000060000000000000000000000000000000000000000000000000000089d3e54abd7e000000000000000000000000000000000000000000000000000000006ae7f4c3000000000000000000000000000000000000000000000000000000000000000a6879706572737461746500000000000000000000000000000000000000000000",
          "blockHash": "0x967932707d23e2b1e300c48bc84ad874a201bf09aa808ed6f087392a2ba12c2e",
          "blockNumber": "0x16d0d05",
          "blockTimestamp": "0x692e85f3",
          "transactionHash": "0x5ee607bd7976c538959e212d5254d56e79190cf32aff17cba0c3744d7113d8aa",
          "transactionIndex": "0x85",
          "logIndex": "0x13d",
          "removed": false
        },
        {
          "address": "0x1a3e5bc5b7410f223cfa2df57aa90739db5bf6ff",
          "topics": [
            "0xbdc63144ed642739de589db600d0c625e01c4994358ad6591b3f6e424ea59945",
            "0xee38b2302380829dfe58c8f8371d8058a8542e55eb4a19f59709ec8264df747c"
          ],
          "data": "0x0000000000000000000000000000000000000000000000000000000000000080000000000000000000000000000000000000000000000000000089d3e54abd7e000000000000000000000000000000000000000000000000000000000028de800000000000000000000000007e491cde0fbf08e51f54c4fb6b9e24afbd18966d000000000000000000000000000000000000000000000000000000000000000a6879706572737461746500000000000000000000000000000000000000000000",
          "blockHash": "0x967932707d23e2b1e300c48bc84ad874a201bf09aa808ed6f087392a2ba12c2e",
          "blockNumber": "0x16d0d05",
          "blockTimestamp": "0x692e85f3",
          "transactionHash": "0x5ee607bd7976c538959e212d5254d56e79190cf32aff17cba0c3744d7113d8aa",
          "transactionIndex": "0x85",
          "logIndex": "0x13e",
          "removed": false
        }
      ],
      "logsBloom": "0x00002000000000000000000000000000000000000000000000010000100000000000000000200000000000000000000000000000000000008000000000400000000004000000000000000000000000000000100400000000000000000000000000000000000000000010000000000000000000000000000000000000000000000000000000000000100010000000000000000000080000000000000000000000000000000000000000004000000000000000000080000000000008000000001000000000000000000000000000000000000000000000000000000000000000000000000000000200000000000000000000000000000000000000000010002800",
      "type": "0x2",
      "transactionHash": "0x5ee607bd7976c538959e212d5254d56e79190cf32aff17cba0c3744d7113d8aa",
      "transactionIndex": "0x85",
      "blockHash": "0x967932707d23e2b1e300c48bc84ad874a201bf09aa808ed6f087392a2ba12c2e",
      "blockNumber": "0x16d0d05",
      "gasUsed": "0x1ca15",
      "effectiveGasPrice": "0x2024f85",
      "from": "0xc9c3a4337a1bba75d0860a1a81f7b990dc607334",
      "to": "0x1a3e5bc5b7410f223cfa2df57aa90739db5bf6ff",
      "contractAddress": null
    }
  ],
  "libraries": [],
  "pending": [],
  "returns": {},
  "timestamp": 1764656629613,
  "chain": 1,
  "commit": "a346a88"
}