{
  "transactions": [
    {
      "hash": "0x0ee8a71201d1a7008d615da56c94ae9fb468cbdf99b51575bae76b18d2ae63b0",
      "transactionType": "CALL",
      "contractName": null,
      "contractAddress": "0xafc5a354a159dc900bb9ea1082d3e20a3cd65026",
      "function": "bulkRenew(string[],uint256[])",
      "arguments": [
        "[hyperstate, jackflash, 0xthrpw]",
        "[2678400, 2678400, 2678400]"
      ],
      "transaction": {
        "from": "0xc9c3a4337a1bba75d0860a1a81f7b990dc607334",
        "to": "0xafc5a354a159dc900bb9ea1082d3e20a3cd65026",
        "gas": "0x58d6b",
        "value": "0x181061f448480",
        "input": "0x7a4d4b20000000000000000000000000000000000000000000000000000000000000004000000000000000000000000000000000000000000000000000000000000001800000000000000000000000000000000000000000000000000000000000000003000000000000000000000000000000000000000000000000000000000000006000000000000000000000000000000000000000000000000000000000000000a000000000000000000000000000000000000000000000000000000000000000e0000000000000000000000000000000000000000000000000000000000000000a687970657273746174650000000000000000000000000000000000000000000000000000000000000000000000000000000000000000000000000000000000096a61636b666c6173680000000000000000000000000000000000000000000000000000000000000000000000000000000000000000000000000000000000000730787468727077000000000000000000000000000000000000000000000000000000000000000000000000000000000000000000000000000000000000000003000000000000000000000000000000000000000000000000000000000028de80000000000000000000000000000000000000000000000000000000000028de80000000000000000000000000000000000000000000000000000000000028de80",
        "nonce": "0x36",
        "chainId": "0x1"
      },
      "additionalContracts": [],
      "isFixedGasLimit": false
    }
  ],
  "receipts": [
    {
      "status": "0x1",
      "cumulativeGasUsed": "0x1e93ad6",
      "logs": [
        {
          "address": "0x57f1887a8bf19b14fc0df6fd9b2acc9af147ea85",
          "topics": [
            "0x9b87a00e30f1ac65d898f070f8a3488fe60517182d0a2098e1b4b93a54aa9bd6",
            "0xee38b2302380829dfe58c8f8371d8058a8542e55eb4a19f59709ec8264df747c"
          ],
          "data": "0x000000000000000000000000000000000000000000000000000000006b39b1c3",
          "blockHash": "0x5b96c7b9c1fe5c1d93aa7753fb8c64bffaeef965573f616909d33524b3aa712a",
          "blockNumber": "0x16d22a1",
          "blockTimestamp": "0x692f8b6b",
          "transactionHash": "0x0ee8a71201d1a7008d615da56c94ae9fb468cbdf99b51575bae76b18d2ae63b0",
          "transactionIndex": "0x9f",
          "logIndex": "0x177",
          "removed": false
        },
        {
          "address": "0x253553366da8546fc250f225fe3d25d0c782303b",
          "topics": [
            "0x3da24c024582931cfaf8267d8ed24d13a82a8068d5bd337d30ec45cea4e506ae",
            "0xee38b2302380829dfe58c8f8371d8058a8542e55eb4a19f59709ec8264df747c"
          ],
          "data": "0x0000000000000000000000000000000000000000000000000000000000000060000000000000000000000000000000000000000000000000000080575fc18180000000000000000000000000000000000000000000000000000000006b39b1c3000000000000000000000000000000000000000000000000000000000000000a6879706572737461746500000000000000000000000000000000000000000000",
          "blockHash": "0x5b96c7b9c1fe5c1d93aa7753fb8c64bffaeef965573f616909d33524b3aa712a",
          "blockNumber": "0x16d22a1",
          "blockTimestamp": "0x692f8b6b",
          "transactionHash": "0x0ee8a71201d1a7008d615da56c94ae9fb468cbdf99b51575bae76b18d2ae63b0",
          "transactionIndex": "0x9f",
          "logIndex": "0x178",
          "removed": false
        },
        {
          "address": "0xf55575bde5953ee4272d5ce7cdd924c74d8fa81a",
          "topics": [
            "0xbdc63144ed642739de589db600d0c625e01c4994358ad6591b3f6e424ea59945",
            "0xee38b2302380829dfe58c8f8371d8058a8542e55eb4a19f59709ec8264df747c"
          ],
          "data": "0x0000000000000000000000000000000000000000000000000000000000000080000000000000000000000000000000000000000000000000000080575fc18180000000000000000000000000000000000000000000000000000000000028de800000000000000000000000007e491cde0fbf08e51f54c4fb6b9e24afbd18966d000000000000000000000000000000000000000000000000000000000000000a6879706572737461746500000000000000000000000000000000000000000000",
          "blockHash": "0x5b96c7b9c1fe5c1d93aa7753fb8c64bffaeef965573f616909d33524b3aa712a",
          "blockNumber": "0x16d22a1",
          "blockTimestamp": "0x692f8b6b",
          "transactionHash": "0x0ee8a71201d1a7008d615da56c94ae9fb468cbdf99b51575bae76b18d2ae63b0",
          "transactionIndex": "0x9f",
          "logIndex": "0x179",
          "removed": false
        },
        {
          "address": "0x57f1887a8bf19b14fc0df6fd9b2acc9af147ea85",
          "topics": [
            "0x9b87a00e30f1ac65d898f070f8a3488fe60517182d0a2098e1b4b93a54aa9bd6",
            "0x4d79029535f7bb4e17e2f2e6ec794122fff9f254c41ad0ee58e1c3ef1ede02ef"
          ],
          "data": "0x000000000000000000000000000000000000000000000000000000006b431247",
          "blockHash": "0x5b96c7b9c1fe5c1d93aa7753fb8c64bffaeef965573f616909d33524b3aa712a",
          "blockNumber": "0x16d22a1",
          "blockTimestamp": "0x692f8b6b",
          "transactionHash": "0x0ee8a71201d1a7008d615da56c94ae9fb468cbdf99b51575bae76b18d2ae63b0",
          "transactionIndex": "0x9f",
          "logIndex": "0x17a",
          "removed": false
        },
        {
          "address": "0x253553366da8546fc250f225fe3d25d0c782303b",
          "topics": [
            "0x3da24c024582931cfaf8267d8ed24d13a82a8068d5bd337d30ec45cea4e506ae",
            "0x4d79029535f7bb4e17e2f2e6ec794122fff9f254c41ad0ee58e1c3ef1ede02ef"
          ],
          "data": "0x0000000000000000000000000000000000000000000000000000000000000060000000000000000000000000000000000000000000000000000080575fc18180000000000000000000000000000000000000000000000000000000006b43124700000000000000000000000000000000000000000000000000000000000000096a61636b666c6173680000000000000000000000000000000000000000000000",
          "blockHash": "0x5b96c7b9c1fe5c1d93aa7753fb8c64bffaeef965573f616909d33524b3aa712a",
          "blockNumber": "0x16d22a1",
          "blockTimestamp": "0x692f8b6b",
          "transactionHash": "0x0ee8a71201d1a7008d615da56c94ae9fb468cbdf99b51575bae76b18d2ae63b0",
          "transactionIndex": "0x9f",
          "logIndex": "0x17b",
          "removed": false
        },
        {
          "address": "0xf55575bde5953ee4272d5ce7cdd924c74d8fa81a",
          "topics": [
            "0xbdc63144ed642739de589db600d0c625e01c4994358ad6591b3f6e424ea59945",
            "0x4d79029535f7bb4e17e2f2e6ec794122fff9f254c41ad0ee58e1c3ef1ede02ef"
          ],
          "data": "0x0000000000000000000000000000000000000000000000000000000000000080000000000000000000000000000000000000000000000000000080575fc18180000000000000000000000000000000000000000000000000000000000028de800000000000000000000000007e491cde0fbf08e51f54c4fb6b9e24afbd18966d00000000000000000000000000000000000000000000000000000000000000096a61636b666c6173680000000000000000000000000000000000000000000000",
          "blockHash": "0x5b96c7b9c1fe5c1d93aa7753fb8c64bffaeef965573f616909d33524b3aa712a",
          "blockNumber": "0x16d22a1",
          "blockTimestamp": "0x692f8b6b",
          "transactionHash": "0x0ee8a71201d1a7008d615da56c94ae9fb468cbdf99b51575bae76b18d2ae63b0",
          "transactionIndex": "0x9f",
          "logIndex": "0x17c",
          "removed": false
        },
        {
          "address": "0x57f1887a8bf19b14fc0df6fd9b2acc9af147ea85",
          "topics": [
            "0x9b87a00e30f1ac65d898f070f8a3488fe60517182d0a2098e1b4b93a54aa9bd6",
            "0x8d438b246e867b8f493a4b8bf7a5987215dee578ca89fae3d016a653f9137b90"
          ],
          "data": "0x00000000000000000000000000000000000000000000000000000000700e431f",
          "blockHash": "0x5b96c7b9c1fe5c1d93aa7753fb8c64bffaeef965573f616909d33524b3aa712a",
          "blockNumber": "0x16d22a1",
          "blockTimestamp": "0x692f8b6b",
          "transactionHash": "0x0ee8a71201d1a7008d615da56c94ae9fb468cbdf99b51575bae76b18d2ae63b0",
          "transactionIndex": "0x9f",
          "logIndex": "0x17d",
          "removed": false
        },
        {
          "address": "0x253553366da8546fc250f225fe3d25d0c782303b",
          "topics": [
            "0x3da24c024582931cfaf8267d8ed24d13a82a8068d5bd337d30ec45cea4e506ae",
            "0x8d438b246e867b8f493a4b8bf7a5987215dee578ca89fae3d016a653f9137b90"
          ],
          "data": "0x0000000000000000000000000000000000000000000000000000000000000060000000000000000000000000000000000000000000000000000080575fc1818000000000000000000000000000000000000000000000000000000000700e431f00000000000000000000000000000000000000000000000000000000000000073078746872707700000000000000000000000000000000000000000000000000",
          "blockHash": "0x5b96c7b9c1fe5c1d93aa7753fb8c64bffaeef965573f616909d33524b3aa712a",
          "blockNumber": "0x16d22a1",
          "blockTimestamp": "0x692f8b6b",
          "transactionHash": "0x0ee8a71201d1a7008d615da56c94ae9fb468cbdf99b51575bae76b18d2ae63b0",
          "transactionIndex": "0x9f",
          "logIndex": "0x17e",
          "removed": false
        },
        {
          "address": "0xf55575bde5953ee4272d5ce7cdd924c74d8fa81a",
          "topics": [
            "0xbdc63144ed642739de589db600d0c625e01c4994358ad6591b3f6e424ea59945",
            "0x8d438b246e867b8f493a4b8bf7a5987215dee578ca89fae3d016a653f9137b90"
          ],
          "data": "0x0000000000000000000000000000000000000000000000000000000000000080000000000000000000000000000000000000000000000000000080575fc18180000000000000000000000000000000000000000000000000000000000028de800000000000000000000000007e491cde0fbf08e51f54c4fb6b9e24afbd18966d00000000000000000000000000000000000000000000000000000000000000073078746872707700000000000000000000000000000000000000000000000000",
          "blockHash": "0x5b96c7b9c1fe5c1d93aa7753fb8c64bffaeef965573f616909d33524b3aa712a",
          "blockNumber": "0x16d22a1",
          "blockTimestamp": "0x692f8b6b",
          "transactionHash": "0x0ee8a71201d1a7008d615da56c94ae9fb468cbdf99b51575bae76b18d2ae63b0",
          "transactionIndex": "0x9f",
          "logIndex": "0x17f",
          "removed": false
        }
      ],
      "logsBloom": "0x00002000000000000000000000000000000000000000000000010000100000000000000000200000000000000000000080000000000000808000000000000000000004000000000000000000000008000000000400000000000000000000000000000000000000000010000000000000000000000000000000000000000000000080000000000000100010000000000000000000080000000000000000000200008000000000000000004000000000000000000080000000000008000000001000000000004000000000000000001000000000000000000000000000000000000000000000000000000000000000000000000000000100000000000010002800",
      "type": "0x2",
      "transactionHash": "0x0ee8a71201d1a7008d615da56c94ae9fb468cbdf99b51575bae76b18d2ae63b0",
      "transactionIndex": "0x9f",
      "blockHash": "0x5b96c7b9c1fe5c1d93aa7753fb8c64bffaeef965573f616909d33524b3aa712a",
      "blockNumber": "0x16d22a1",
      "gasUsed": "0x40515",
      "effectiveGasPrice": "0x20a5cac",
      "from": "0xc9c3a4337a1bba75d0860a1a81f7b990dc607334",
      "to": "0xafc5a354a159dc900bb9ea1082d3e20a3cd65026",
      "contractAddress": null
    }
  ],
  "libraries": [],
  "pending": [],
  "returns": {},
  "timestamp": 1764723566068,
  "chain": 1,
  "commit": "edcd91c"
}